S01900004C6563747572614465456E7472616461732E7372656360
S11300000C9434000C943E000C943E000C943E007E
S11300100C943E000C943E000C943E000C943E0064
S11300200C943E000C943E000C943E000C943E0054
S11300300C943E000C943E000C943E000C943E0044
S11300400C943E000C943E000C943E000C943E0034
S11300500C943E000C943E000C943E000C943E0024
S11300600C943E000C943E0011241FBECFEFD8E048
S1130070DEBFCDBF0E9459000C9483000C94000095
S11300808AB18F7E8AB98AB1877F8AB984B1806147
S113009084B984B1886084B98BB18F7E8BB98BB1FC
S11300A0877F8BB985B18F7E85B985B1877F85B907
S11300B008950E9440004C9909C04B9907C085B12E
S11300C0806185B985B1886085B9F5CF4C9909C03F
S11300D04B9B07C085B1806185B985B1877F85B9A0
S11300E0EACF4C9B09C04B9907C085B18F7E85B977
S11300F085B1886085B9DFCF85B18F7E85B985B13B
S10D0100877F85B9D8CFF894FFCFAC
S9030000FC
