S01900004C6563747572614465456E7472616461732E7372656360
S11300000C9434000C943E000C943E000C943E007E
S11300100C943E000C943E000C943E000C943E0064
S11300200C943E000C943E000C943E000C943E0054
S11300300C943E000C943E000C943E000C943E0044
S11300400C943E000C943E000C943E000C943E0034
S11300500C943E000C943E000C943E000C943E0024
S11300600C943E000C943E0011241FBECFEFD8E048
S1130070DEBFCDBF0E9459000C945E000C940000BA
S11300808AB18F7E8AB98AB1877F8AB984B1806147
S113009084B984B1886084B98BB18F7E8BB98BB1FC
S11300A088608BB985B18F7E85B985B1877F85B925
S11300B008950E94400089B185B9FDCFF894FFCF1F
S9030000FC
